:020000040800F2
:10000000582900244D040008F994000819880008B4
:100010000D910008410B0008E1B00008000000004D
:100020000000000000000000000000008D03000838
:10003000ED14000800000000E9030008219E0008FC
:1000400067040008670400086704000867040008E4
:1000500067040008670400086704000835180008F2
:10006000670400086704000867040008C10E000860
:10007000D10E0008E10E0008F10E0008010F000883
:10008000110F0008210F0008670400083519000847
:10009000551900084519000865190008670400088B
:1000A00067040008D59F000867040008670400087B
:1000B000E59F0008F59F000805A0000867040008F8
:1000C0006704000867040008670400086704000864
:1000D0006704000845AF000855AF000865AF000889
:1000E00067040008670400080000000067040008B7
:1000F000670400086704000867040008310F00085F
:100100006704000867040008670400086704000823
:1001100019A30008670400086704000867040008C2
:10012000410F0008510F0008610F0008710F00080F
:1001300067040008670400086704000867040008F3
:1001400000000000000000000000000000000000AF
:1001500067040008670400086704000867040008D3
:1001600067040008670400086704000867040008C3
:100170006704000867040008670400080000000026
:10018000670400086704000829A300086704000842
:100190006704000867040008670400086704000893
:1001A00067040008670400086704000800000000F6
:1001B0006704000867040008670400086704000873
:1001C0006704000867040008000000000000000049
:1001D00000000000000000006704000800000000AC
:1001E000000000000000000000000000000000000F
:1001F0000000000000000000670400086704000819
:100200006704000867040008000000006704000895
:100210006704000867040008670400086704000812
:1002200067040008000000006704000800000000E8
:100230006704000867040008000000006704000865
:1002400067040008670400086704000867040008E2
:1002500067040008670400086704000867040008D2
:1002600067040008670400086704000867040008C2
:100270006704000867040008670400080000000025
:1002800067040008670400086704000867040008A2
:100290000000000067040008670400080000000078
:1002A00000000000670400086704000867040008F5
:1002B00035AF0008670400086704000875190008D6
:1002C00085190008670400086704000800F002F8B8
:1002D00000F04CF80AA090E8000C82448344AAF194
:1002E0000107DA4501D100F041F8AFF2090EBAE892
:1002F0000F0013F0010F18BFFB1A43F0010318475A
:100300004CEF00007CEF00000A4410F8014B14F0A1
:100310000F0508BF10F8015B240908BF10F8014B56
:100320006D1E05D010F8013B6D1E01F8013BF9D19F
:10033000641E03D0641E01F8015BFBD19142E4D33B
:10034000704700000023002400250026103A28BF33
:1003500078C1FBD8520728BF30C148BF0B60704737
:100360001FB50EF041FC1FBD10B510BD00F0E4F943
:100370001146FFF7F5FF0CF0BBFB00F002FA03B4E7
:10038000FFF7F2FF03BC00F005FA00002C4B1968E0
:100390000868B0E8F04F80F30988BFF36F8F4FF023
:1003A000000080F3118870470000000008480068D2
:1003B000006880F308884FF0000080F3148862B66C
:1003C00061B6BFF34F8FBFF36F8F00DF00BF00BF79
:1003D00008ED00E0DFF80C00016841F470010160F5
:1003E000704700BF88ED00E0EFF30980BFF36F8F27
:1003F000134B1A681EF0100F08BF20ED108A20E979
:10040000F04F106009B44FF0500080F31188BFF333
:100410004F8FBFF36F8F0DF0DBFC4FF0000080F3C8
:10042000118809BC19680868B0E8F04F1EF0100F79
:1004300008BFB0EC108A80F30988BFF36F8F704754
:1004400050000024EFF30580704700000948804702
:1004500009480047FEE7FEE7FEE7FEE7FEE7FEE7A6
:10046000FEE7FEE7FEE7FEE704480549054A064BBE
:1004700070470000F59E0008CD02000858230024B4
:1004800058290024582500245825002453EA020C3A
:1004900000F069802DE9F04B4FF00006002B1FBFE4
:1004A000B3FA83F503FA05F424FA05F65E4012BFA9
:1004B0001643B2FA82F502FA05F4C5F120051EBF13
:1004C00022FA05FC44EA0C04203556EA044C4FEAB3
:1004D000144418BF641C4FF000084FF0000990420C
:1004E00071EB030C39D3002919BFB1FA81F701FA76
:1004F00007F6B0FA80F700FA07F6C7F120071EBF2B
:1005000020FA07FC46EA0C062037B6FBF4FCA7EB02
:100510000507103F07F01F0BCBF120060CFA0BFB71
:100520002CFA06F644BFB3460026202FA4BF5E4631
:100530004FF0000B5BEA060C08BF4FF0010B19EB04
:100540000B09ABFB027C48EB0608C01B06FB02CC88
:100550000BFB03CC71EB0C01C1E70B460246414695
:100560004846BDE8F08B13B54FF000004FF0000196
:10057000AFF30080BDE81C407047032A40F2308092
:1005800010F0030C00F0158011F8013BBCF1020FD4
:10059000624498BF11F801CB00F8013B38BF11F855
:1005A000013BA2F1040298BF00F801CB38BF00F86C
:1005B000013B11F0030300F02580083AC0F00880E9
:1005C00051F8043B083A51F804CBA0E80810F5E7CD
:1005D000121D5CBF51F8043B40F8043BAFF30080B0
:1005E000D20724BF11F8013B11F801CB48BF11F825
:1005F000012B24BF00F8013B00F801CB48BF00F8F5
:10060000012B704710B5203AC0F00B80B1E81850AC
:10061000203AA0E81850B1E81850A0E81850BFF4EC
:10062000F5AF5FEA027C24BFB1E81850A0E818508B
:1006300044BF18C918C0BDE810405FEA827C24BFDF
:1006400051F8043B40F8043B08BF7047D20728BF6D
:1006500031F8023B48BF11F8012B28BF20F8023BBC
:1006600048BF00F8012B704702F0FF0343EA032262
:1006700042EA024200F002B84FF000020429C0F042
:10068000128010F0030C00F01B80CCF1040CBCF1C4
:10069000020F18BF00F8012BA8BF20F8022BA1EB16
:1006A0000C0100F00DB85FEAC17C24BF00F8012BFB
:1006B00000F8012B48BF00F8012B70474FF00002F3
:1006C00000B5134694469646203922BFA0E80C5048
:1006D000A0E80C50B1F12001BFF4F7AF090728BF23
:1006E000A0E80C5048BF0CC05DF804EB890028BF9F
:1006F00040F8042B08BF704748BF20F8022B11F0C8
:10070000804F18BF00F8012B704770477047704743
:1007100010B500F009F8006810BD10B5044600F0EF
:1007200003F8046010BD000000487047F422002464
:1007300000487047F42200247546FFF7F9FFAE46E3
:1007400005006946534620F00700854618B020B5DD
:10075000FFF78AFEBDE820404FF000064FF000078B
:100760004FF000084FF0000B21F00701AC46ACE859
:10077000C009ACE8C009ACE8C009ACE8C0098D46C6
:10078000704710B50446AFF300802046BDE8104026
:10079000FFF7F5BD01491820ABBEFEE726000200B9
:1007A0007047000070B58EB005460C4616461C21F9
:1007B00007A8FFF783FF204607F013F90C480078DD
:1007C000FE280CD10A484078EE2808D1084968462E
:1007D0000AF0D0FB1C22694607A8FFF713FF00F0C0
:1007E00009F81C2207A92846FFF70CFF0EB070BDC0
:1007F0009020002410B5642239493A4806F0C8FF19
:10080000394800683949884258D037480068374924
:100810001831884252D03448006834493031884217
:100820004CD03148006831494831884246D02E4882
:1008300000682E496031884240D02B4800682B491F
:10084000783188423AD02848006828499031884257
:1008500034D0254800682549A83188422ED0224846
:1008600000682349884229D01F4800682049183170
:10087000884223D01C4800681D49303188421DD071
:10088000194800681A494831884217D0164800684C
:1008900017496031884211D01348006814497831F3
:1008A00088420BD01048006811499031884205D029
:1008B0000D4800680E49A831884208D10A480068EE
:1008C000006820F0080008490968086007E0064849
:1008D0000068006820F0040003490968086010BD42
:1008E0009020002484070024C80C0024100002403B
:1008F00010040240F0B589B006460F4614461D4666
:1009000024216846FFF7DAFE3946684608F0F0FE13
:1009100001222946204604F0F5FA40F6FF73222210
:100920006946304607F016FF00222946204604F0AB
:10093000E9FA09B0F0BD0000F0EE601A594A1268F9
:10094000914207D1584AD2ED000AB4EE600AF1EEA6
:1009500010FA16D0D0ED0A0A544AC2ED000A00225D
:10096000534B1A604F4A11604F4A82ED000A4F4ABA
:10097000D2ED000A4F4AC2ED000A01224E4B1A7016
:100980000AE04B4A1268921C494B1A601A461268D8
:100990008A4201D91A461160474A1278002A7FD04C
:1009A000434A12688A4203D3424A82ED000A35E084
:1009B0003F4AD2ED005AB8EE656A05EE901AF8EE9D
:1009C000655AC6EE256AF0EE660A60EEA05A65EE3C
:1009D000A05AF0EE653A63EEA05AB0EE654A64EEB6
:1009E000205AF0EE654AF2EE045A63EEA55AB2EED2
:1009F0000E6A46EE445AB1EE086A46EE245AB0EE4C
:100A0000655A2A4AD2ED005A30EE656AD2ED005A94
:100A100046EE055A274AC2ED005A00BF0A2242702C
:100A2000C0ED051AD0ED0A0A224AD2ED003A33EEA3
:100A3000E02AD0ED0A0A70EE602A9FED203AB7EE68
:100A4000E24AB0EEC44BB7EEC35AB4EEC54BF1EE7A
:100A500010FA07D2DFED1A0AC0ED020A0022164B87
:100A60001A701CE0F0EE003A62EE233AF0EE630AF0
:100A7000F4EEC10AF1EE10FA03DDF0EE410A0BE0EC
:100A80000EE0F1EE413AF4EEE30AF1EE10FA03D291
:100A9000F1EE413AF0EE630AC0ED020A00BF00BF7A
:100AA00070470000A4010024A80100249C01002438
:100AB00098010024A001002481010024CDCCCC3D6C
:100AC000000000000146002901DD084600E0484220
:100AD00000B270470146002901DA484270470846D3
:100AE000FCE7000010B52DED068BF0EE408AB0EE6D
:100AF000608AB0EE680A0BF0AFFFB0EE409AB4EE39
:100B0000C89AF1EE10FA04D29FED0C0ABDEC068BE8
:100B100010BDF5EEC08AF1EE10FAB7EE000AFFEE56
:100B2000000A60FE209A39EE480AF7EE000A70EEDD
:100B3000C80A80EE20AA29EE8A0AE7E70000000032
:100B400000BFFEE72DE9F0438BB080460E46144609
:100B50001F46DDF84890002007E007EBC011B1F810
:100B60007C1009AA22F81010401C0428F5DB002094
:100B700020606060BDF82400000A2070BDF82400E9
:100B80006070BDF82600000AA070BDF82600E07075
:100B9000BDF82800000A2071BDF828006071BDF87A
:100BA0002A00000AA071BDF82A00E071002001901F
:100BB00002900096CDF80C90049005900690079056
:100BC000089022466946404603F0F2F9054615B101
:100BD000012003F085F90BB0BDE8F083F0B50246C3
:100BE0000B4600240026601E124F00211EE04FF02D
:100BF000004452F82160002515E000F0004CBCF1E3
:100C0000000F04D0DFF82CC08CEA400000E0400068
:100C100006EA040CBCF1000F03D0DFF818C080EA2C
:100C20000C0064086D1C202DE7D3491C9942DED3CB
:100C3000F0BD0000B71DC10410B52DED068B86B0C8
:100C40000446B0EE408A3B4A07CA03AB07C3394AA1
:100C50000C32D2E900109268CDE9010200913648C9
:100C600090ED081ADDED031A31EE611AB7EEC11AE4
:100C7000B0EE410BB0EE001B0AF00EFDB0EE40AB43
:100C80002D4890ED091ADDED041A31EE611AB7EE28
:100C9000C11AB0EE410BB0EE001B0AF0FDFC3AEEBB
:100CA000000BB7EEC00BF0EE409A0BF067FDF0EED4
:100CB000408A214890ED081ADDED001A31EE611AE4
:100CC000B7EEC11AB0EE410BB0EE001B0AF0E4FC27
:100CD000B0EE40AB184890ED091ADDED011A31EE87
:100CE000611AB7EEC11AB0EE410BB0EE001B0AF06C
:100CF000D3FC3AEE000BB7EEC00BF0EE409A0BF0CF
:100D00003DFDB0EE409AF4EEC88AF1EE10FA02D240
:100D10000120207009E0B4EEC89AF1EE10FA02D278
:100D20000220207001E00020207006B0BDEC068B90
:100D300010BD000020F00008AC1F002410B50446D0
:100D4000A01C01F08BFA84ED0C0AA01D01F086FABC
:100D500084ED0B0A04F10A0001F080FA84ED0D0A1B
:100D600004F10E0001F07AFA84ED0E0A04F112008B
:100D700001F074FA84ED080A04F1160001F06EFA2D
:100D800084ED090A04F11A0001F068FA84ED0A0AF8
:100D90000A480068401C0949086094F8900018B996
:100DA00004F13C0008F0B4F9044804F120010268A1
:100DB00004F13C0008F0FAF910BD00007C010024A9
:100DC00010B5202239493A4806F0E2FC394800685B
:100DD0003949884258D03748006837491831884225
:100DE00052D0344800683449303188424CD03148C0
:100DF000006831494831884246D02E4800682E4963
:100E00006031884240D02B4800682B4978318842B5
:100E10003AD02848006828499031884234D0254883
:100E200000682549A83188422ED02248006823490D
:100E3000884229D01F48006820491831884223D0B1
:100E40001C4800681D49303188421DD0194800688F
:100E50001A494831884217D016480068174960314E
:100E6000884211D0134800681449783188420BD069
:100E70001048006811499031884205D00D4800683B
:100E80000E49A831884208D10A480068006820F05D
:100E9000080008490968086007E00648006800681B
:100EA00020F0040003490968086010BDAC1F00244D
:100EB0005C060024E80A00241000024010040240EE
:100EC00010B5024801F016FE10BD0000F80900241C
:100ED00010B5024801F00EFE10BD0000700A00249B
:100EE00010B5024801F006FE10BD0000D80B00242A
:100EF00010B5024801F0FEFD10BD0000500C0024AA
:100F000010B5024801F0F6FD10BD0000E80A00240B
:100F100010B5024801F0EEFD10BD0000600B00248A
:100F200010B5024801F0E6FD10BD000018080024CD
:100F300010B5024801F0DEFD10BD0000900800244D
:100F400010B5024801F0D6FD10BD0000C80C002409
:100F500010B5024801F0CEFD10BD0000400D002488
:100F600010B5024801F0C6FD10BD000008090024BC
:100F700010B5024801F0BEFD10BD0000800900243C
:100F80000146374A0868904249D0354A1832086805
:100F9000904244D0324A3032086890423FD0304AC2
:100FA0004832086890423AD02D4A60320868904230
:100FB00035D02B4A78320868904230D0284A903297
:100FC000086890422BD0264AA8320868904226D062
:100FD000244A0868904222D0224A18320868904277
:100FE0001DD0204A30320868904218D01D4A48323D
:100FF0000868904213D01B4A6032086890420ED0B5
:10100000184A78320868904209D0164A9032086827
:10101000904204D0134AA8320868904201D10120BE
:1010200000E00020B0B10A78103A1823B2FBF3F0C8
:1010300000F007020C4B9A5CCA65032805D90A68C0
:101040006FF30902121D8A6503E00A686FF3090253
:101050008A6503E0086820F0FF008865886D7047A6
:10106000100002401004024074ED000810B5026840
:101070002B4C0368A34222D0294C14340368A342AA
:101080001DD0274C28340368A34218D0244C3C348C
:101090000368A34213D0224C50340368A3420ED0FD
:1010A0001F4C64340368A34209D01D4C7834036894
:1010B000A34204D01A4C8C340368A34201D101230B
:1010C00000E000238BB10378083B1424B3FBF4F158
:1010D000144B03EB81030366124B8033436601F02C
:1010E0001F040123A340836618E00378103B1824F3
:1010F000B3FBF4F10C4B9A4204D80B4BA83B9A4239
:1011000000D30831094B03EB81030366074B80339F
:10111000436601F01F040123A340836610BD000055
:101120000854025800580258B8040240000802400F
:101130000179A9B3082940D8204B02689A4222D0ED
:101140001E4B143302689A421DD01C4B2833026890
:101150009A4218D0194B3C3302689A4213D0174B6D
:10116000503302689A420ED0144B643302689A429C
:1011700009D0124B783302689A4204D00F4B8C335B
:1011800002689A4201D1012200E000224AB14A1EBF
:101190000B4B03EB8202C266094A4032026708E049
:1011A0000BE04A1E074B03EB8202C266054A40323F
:1011B00002674A1E01239340436770470854025850
:1011C0000059025800090240014600208A69D2B93C
:1011D0008A6A32B1012A0DD0022A03D0032A10D123
:1011E0000EE000BFCA6A02F08072B2F1807F00D1C7
:1011F000012007E0CA6AB2F1C07F00D1012001E0FE
:1012000000E000BF36E08A69B2F5005F1BD18A6A50
:1012100032B1012A07D0022A03D0032A11D10AE0F1
:1012200000BF01200EE0CA6A02F08072B2F1807F36
:1012300000D1012006E0CA6AB2F1C07F00D10120CE
:1012400000E000BF16E08A6A32B1012A05D0022A06
:1012500004D0032A0CD103E000BF00BF012008E046
:10126000CA6A02F08072B2F1807F00D1012000E0F2
:1012700000BF00BF70470000F0B5856D846D984FCA
:101280000668BE4270D0964F18370668BE426BD0D3
:10129000934F30370668BE4266D0914F4837066894
:1012A000BE4261D08E4F60370668BE425CD08C4F24
:1012B00078370668BE4257D0894F90370668BE42DD
:1012C00052D0874FA8370668BE424DD0854F06687A
:1012D000BE4249D0834F18370668BE4244D0814F82
:1012E00030370668BE423FD07E4F48370668BE4260
:1012F0003AD07C4F60370668BE4235D0794F783798
:101300000668BE4230D0774F90370668BE422BD079
:10131000744FA8370668BE4226D0734F0668BE4297
:1013200022D0714F14370668BE421DD06E4F283749
:101330000668BE4218D06C4F3C370668BE4213D0D8
:10134000694F50370668BE420ED0674F6437066853
:10135000BE4209D0644F78370668BE4204D0624F5F
:101360008C370668BE4201D1012600E000263EB15E
:10137000D0E919767E60C66E16B1D0E91C767E6023
:10138000574F0668BE4249D0554F18370668BE42CF
:1013900044D0534F30370668BE423FD0504F483795
:1013A0000668BE423AD04E4F60370668BE4235D01E
:1013B0004B4F78370668BE4230D0494F90370668A9
:1013C000BE422BD0464FA8370668BE4226D0454FB6
:1013D0000668BE4222D0434F18370668BE421DD071
:1013E000404F30370668BE4218D03E4F4837066837
:1013F000BE4213D03B4F60370668BE420ED0394F15
:1014000078370668BE4209D0364F90370668BE422C
:1014100004D0344FA8370668BE4201D1012600E04F
:101420000026DEB190F85C6006F01F073F26BE4044
:10143000AE600668366826F4802607683E60066857
:1014400073608668402E04D10668B2600668F16059
:1014500044E00668B1600668F2603FE0224F06682B
:10146000BE4222D0204F14370668BE421DD01E4F08
:1014700028370668BE4218D01B4F3C370668BE426C
:1014800013D0194F50370668BE420ED0164F64373E
:101490000668BE4209D0144F78370668BE4204D0B1
:1014A000114F8C370668BE4201D1012600E00026AC
:1014B000A6B190F85C6006F01F070126BE4066608A
:1014C000066873608668402E04D10668B2600668BC
:1014D000F16003E00668B1600668F260F0BD0000EC
:1014E000100002401004024008540258704710B522
:1014F0002DED048BB0EE409AF0EE608AB0EE418A9A
:10150000B0EE490A0BF0A8FAB4EEC80AF1EE10FAF0
:1015100003D20120BDEC048B10BDB4EEC89AF1EEED
:1015200010FA06DDB1EE480AF4EEC08AF1EE10FAC8
:101530000BD3B1EE480AB4EEC09AF1EE10FA06D21F
:10154000F4EEC88AF1EE10FA01DD0120E2E7B0EE18
:10155000490A0BF081FAF0EE409AB0EE680A0BF0FF
:101560007BFA30EE480AF4EEC09AF1EE10FA01D29E
:101570000120CFE70020CDE710B50446A01C00F005
:101580006DFE84ED080A9FED3A0AF0EE400A9FEDE9
:10159000380AB0EE401A94ED090AD4ED081AB4EEF8
:1015A000E10AF1EE10FA14D294ED080AD4ED091A0A
:1015B00030EE610AF0EE400A94ED080AD4ED091A03
:1015C00030EE610ADFED2B1A30EE610AB0EE401A00
:1015D00013E094ED080AD4ED091A30EE610AF0EE3A
:1015E000400A94ED080ADFED231A30EE210AD4ED0B
:1015F000091A30EE610AB0EE401AB7EEE02AB0EEFA
:10160000C22BB7EEC13AB0EEC33BB4EEC32BF1EE42
:1016100010FA00BF31FE200A84ED0A0A94ED080A90
:1016200084ED090A94ED0B0AD4ED0A1A30EE210A72
:1016300084ED0B0A94ED0B0AD4ED0C1A30EE210A5E
:1016400084ED0D0A04F10E0000F008FE84ED0E0A90
:1016500004F1120000F002FE84ED0F0A94ED0E0A70
:10166000054880ED100A94ED0F0A80ED110A10BDB7
:10167000000000000000B4430C1B002410B51C2225
:1016800039493A4806F084F83948006839498842AF
:1016900058D03748006837491831884252D034480A
:1016A00000683449303188424CD0314800683149B3
:1016B0004831884246D02E4800682E496031884221
:1016C00040D02B4800682B49783188423AD02848CE
:1016D000006828499031884234D02548006825495F
:1016E000A83188422ED0224800682349884229D058
:1016F0001F48006820491831884223D01C480068E0
:101700001D49303188421DD0194800681A494831B6
:10171000884217D01648006817496031884211D0B6
:10172000134800681449783188420BD0104800688B
:1017300011499031884205D00D4800680E49A83102
:10174000884208D10A480068006820F0080008496B
:101750000968086007E006480068006820F0040097
:1017600003490968086010BD0C1B0024C80500244B
:10177000F8090024100002401004024010B52DEDBD
:10178000088BB0EE40BAB0EE608AB0EE419BF0EE4E
:10179000428A3BEE480AB0EE40AAB0EE4A0A0BF08D
:1017A0005BF9DFED230AB4EEE00AF1EE10FA04D2A1
:1017B000B0EE4B0ABDEC088B10BDB0EE4A0A0BF040
:1017C0004BF9C0EE28AAB2EE041AF0EE480AB0EEC9
:1017D0004B0AFFF78CFE04469CB1F4EEE9AAF1EE49
:1017E00010FA22DDB5EEC0AAF1EE10FA04DDB0EE7B
:1017F000480A09EEA80ADDE7B0EE480A09EEE80A51
:10180000D8E7F4EEC9AAF1EE10FA0EDDB5EEC0AAE3
:10181000F1EE10FA04DDB0EE480A09EE280AC9E735
:10182000B0EE480A09EE680AC4E7B0EE4B0AC1E719
:10183000CDCCCC3D10B5022003F05EFA10BD000007
:1018400010B5F1EE000A9FED2E0A2E4806F0FAFFC1
:10185000F2EE080A9FED2A0A2A480C3006F0F2FF41
:101860009FED290A274880ED080A9FED270A80EDA1
:10187000090A9FED260A80ED0A0A9FED250A80EDF0
:101880000B0A9FED240A80ED0C0A012180F8341028
:101890009FED210A80ED0E0A9FED1F0A80ED0F0AD1
:1018A0009FED1E0A80ED100A9FED1D0A80ED110AC2
:1018B0009FED1B0A80ED120A9FED1A0A80ED130AB4
:1018C000B3EE040A80ED140A9FED0D0A80ED150AAF
:1018D0009FED150A80ED160A9FED130A80ED170A99
:1018E0009FED110A80ED180A0020064908779FED48
:1018F0000E0A084680ED060A012081F8640010BD3A
:101900000AD7A33C441F002400606A460080BB4401
:101910000AD7A33DCDCC0C400000FA4500803B45E2
:1019200000A08C460080BB450000000072B600BFDE
:10193000FEE7000010B5024802F0D6FC10BD000022
:10194000DC01002410B5024802F0CEFC10BD0000FE
:10195000DC01002410B5024802F0C6FC10BD0000F6
:101960007C02002410B5024802F0BEFC10BD00004D
:101970007C02002410B5024802F0B6FC10BD000045
:101980001C03002410B5024802F0AEFC10BD00009C
:101990001C03002410B501464A6B0868D0F8840087
:1019A0004FF6FC74A04340EA82000C68C4F884003F
:1019B0000868D0F8840020F47F04088F44EA0040CF
:1019C0000C68C4F88400886B02440868D0F888006A
:1019D0004FF6FC74A04340EA82000C68C4F888000B
:1019E0000868D0F8880020F4FE04888F44EA00409C
:1019F0000C68C4F88800C86B02EB40020868D0F895
:101A0000A0004FF6FC74A04340EA82000C68C4F8C2
:101A1000A0000868D0F8A00020F4FE044020405A3E
:101A200044EA00400C68C4F8A000D1E9104004FB6F
:101A300000220868D0F8B0004FF6FC74A04340EADA
:101A400082000C68C4F8B0000868D0F8B00020F438
:101A5000FE04B1F8480044EA00400C68C4F8B00045
:101A6000D1E9124004FB00220868D0F8AC004FF620
:101A7000FC74A04340EA82000C68C4F8AC00D1E9D1
:101A8000144004FB00220868D0F8F0004FF6FC7404
:101A9000A04340EA82000C68C4F8F0000868D0F85F
:101AA000F00020F47C14B1F8580044EA00400C68BF
:101AB000C4F8F000886D02EB40020868D0F8C0005E
:101AC0004FF6FC74A04340EA82000C68C4F8C000E2
:101AD0000868D0F8C00020F47C14B1F85C0044EA37
:101AE00000400C68C4F8C0000868D0F8C00020F0BE
:101AF0007C5491F8600044EA00600C68C4F8C000AF
:101B00002A4C486B04EB8000C866CC6E886B04EBF3
:101B100080040C670C6FC86B04EBC0044C67D1E900
:101B2000100460434C6F04EB80048C67D1E912040D
:101B300060438C6F04EB8004CC67D1E914046043EC
:101B4000CC6F04EB8004802044504458886D04EB33
:101B5000C004842044508C6EC86D60438424645853
:101B600004EB8004882044508C6E086E6043882407
:101B7000645804EB80049020445040580C4CA04220
:101B800009D99831486840F020004860032001F8E6
:101B90009809012010BDCB6E02E0002018601B1DCB
:101BA000902040589842F8D80020F3E700AC00405D
:101BB000FCD3004010B588B004460020009001908E
:101BC00002200290012003900020049005906946B5
:101BD000204602F036FA204603F04DF8002201219B
:101BE000204602F091F9002008B010BD2DE9F04127
:101BF000054614461E46D1F804C0BCF1000F0AD1B8
:101C0000D1F810C0D1F808804CEA080CB1F8008077
:101C10004CEA88430BE0D1F810C04CF0804CD1F86E
:101C200008804CEA080CD1F800804CEA080391F8CF
:101C30002080D1F81CC04CEA086CD1F818804CEA1E
:101C4000080CD1F814804CEA080CB1F80C804CEA6E
:101C50000847D5F868C00CFB06FCD5F8848008EB73
:101C60008C021360121D1760121D002019E000F194
:101C7000030C14F80CC04FEA0C6800F1020C14F8C5
:101C80000CC048EA0C4800F1010C14F80CC048EAFA
:101C90000C2C14F800804CEA080CC2F800C0121D8D
:101CA000001DDFF81480D1F80CC018F80CC0844572
:101CB000DDD8BDE8F08100007CED00082DE9F04F93
:101CC00089B083468A4614461D46129E24216846E2
:101CD000FEF7F4FC002001900290CDF800A00A204D
:101CE0000390002004904FF480100590400006906F
:101CF0000020079008902F68D5F80480D5F8089048
:101D000010212046FEF7B8FC2770380A6070380CA6
:101D1000A070380EE07084F804804FEA18206071DB
:101D20004FEA1840A0714FEA1860E07184F80890FB
:101D30004FEA192060724FEA1940A0724FEA196009
:101D4000E0723078207370786073B078A073F078A8
:101D5000E07322466946584602F02AF909B0BDE808
:101D6000F08F000070B51649D1F89401FEF7B2FE6D
:101D7000054646F66050FEF7ADFE2C1A01201149CB
:101D8000087002E002200AF005FFDFED0F0A0F489D
:101D900090ED000A06F042FD0028F3D106E046F679
:101DA00060500B49088002200AF0F4FE322CF6DC69
:101DB00000200449087001200649087070BD000029
:101DC000F4200024D0000024CDCCCC3D140000240D
:101DD000B40100242000002410B52DED108B8AB032
:101DE0000020079008900990FE4890F8640008B918
:101DF000FFF726FDFC48D0ED000AB0EE600ADFEDEB
:101E0000FB0A07F009FCF0EE40DAF748D0ED010AD2
:101E1000B0EE600ADFEDF50A07F0FEFBB0EE40EA37
:101E2000F148D0ED020AB0EE600ADFEDF10A07F0EA
:101E3000F3FBF0EE40EAEB4890ED0B0AF0EE400ABF
:101E4000B0EE6D0AFEF74EFEF0EE40DAE54890ED9A
:101E50000B0AF0EE400AB0EE4E0AFEF743FEB0EE7B
:101E600040EAE04890ED0B0AF0EE400AB0EE6E0A50
:101E7000FEF738FEF0EE40EADA4991F8340091EDD1
:101E80000C0AF0EE400AB0EE6D0A07F037FBB0EE38
:101E9000409AD44991F8340091ED0C0AF0EE400AD2
:101EA000B0EE4E0A07F02AFBF0EE409ACD4991F8C9
:101EB000340091ED0C0AF0EE400AB0EE6E0A07F025
:101EC0001DFBB0EE40AAC74890ED080A60EE09AAD3
:101ED00090ED090A20EE29BA90ED0A0A60EE0ABADE
:101EE00090ED171AF0EE410A90ED161AB0EE410A85
:101EF00003A904A809F065F901A902A8F0EE4B0AAC
:101F0000B0EE6A0A09F05DF99DED020ADDED040A02
:101F1000B4EEE00AF1EE10FA08DC9DED040ADFED04
:101F2000B50AB4EEE00AF1EE10FA01D2012000E0A9
:101F300000200446B048007880B99DED020ADFED2C
:101F4000AF0AB4EEE00AF1EE10FA07DD9DED010AEA
:101F5000AB4880ED000A0120A7490870002C63D02F
:101F60009DED020ADFEDA70AB4EEE00AF1EE10FAE9
:101F700051DD9DED020ADFEDA40AB4EEE00AF1EEB8
:101F800010FA02DD9FEDA18A1FE09DED020ADFED50
:101F9000A00AB4EEE00AF1EE10FA14DDDDED020A5B
:101FA0009FED9B1A70EEC10A9FED991AC0EE811A3F
:101FB000B0EE610ADFED970A9FED941AB0EE608AE9
:101FC00001EE408A01E09FED938ADDED010A8C4825
:101FD00090ED001A70EEC10AB0EE600A07F0D4FA74
:101FE000F0EE40CA28EE2CDA854890ED000A70EE3B
:101FF0000D8AC0ED008A9DED020A7A4806F044FC85
:10200000B0EE40FA05A906A8F0EE680AB0EE4F0A55
:1020100007F064FC71E09FED800A8DED060A9FEDEC
:102020007E0A8DED050A68E09DED020ADFED750A76
:10203000B4EEE00AF1EE10FA4ADD9DED020ADFEDA2
:10204000720AB4EEE00AF1EE10FA02DD9FED6F8A3B
:102050001FE09DED020ADFED6E0AB4EEE00AF1EE3C
:1020600010FA14DDDDED020A9FED691A70EEC10A67
:102070009FED671AC0EE811AB0EE610ADFED650AC6
:102080009FED621AB0EE608A01EE408A01E09FED9A
:10209000618ADDED010A5A4890ED001A70EEC10A1E
:1020A000B0EE600A07F070FAF0EE40CA28EE2CDAC3
:1020B000534890ED000A70EE0D8AC0ED008A05A924
:1020C00006A8F0EE680A9DED020A07F007FC14E08E
:1020D0004948007848B105A906A8494AD2ED000A46
:1020E0009FED4D0A07F0FAFB07E09FED4B0A8DEDDF
:1020F000060A9FED490A8DED050AB0EE6B0A3948D4
:102100000C3006F0C1FBB0EE40CA364890ED150A1F
:10211000B0EE402A90ED110AF0EE401A90ED0E0A52
:10212000B0EE401A90ED160AF0EE400A9DED060A58
:10213000FFF724FB8DED070A2A4890ED150AB0EE53
:10214000402A90ED120AF0EE401A90ED0F0AB0EE20
:10215000401A90ED170AF0EE400A9DED050AFFF7D0
:102160000DFB8DED080A1F4890ED150AB0EE402AD0
:1021700090ED130AF0EE401A90ED100AB0EE401AFE
:1021800090ED180AF0EE400AB0EE4C0AFFF7F6FAAE
:102190008DED090ADDED070AB0EE600A0AF05CFC7D
:1021A0001048D0ED140AB4EEE00AF1EE10FA03D2B2
:1021B0009FED190A8DED070ADDED080AB0EE600A01
:1021C0000AF04AFC0748D0ED140AB4EEE00AF1EE3A
:1021D00010FA03D29FED100A8DED080ADDED090A11
:1021E0001CE00000441F0024381F00240080D44558
:1021F0000080BB440000484278010024CDCCCC3D97
:10220000740100240AD7233C0000FA459A99193E2C
:1022100000007A459A99993E00000000B0EE600AED
:102220000AF01AFCF3EE040AB4EEE00AF1EE10FA3A
:1022300003D21FED070A8DED090A074807A90EC949
:1022400058300EC09DED070ADDED080A9DED091A14
:102250000AB0BDEC108B10BD441F002408B56946C0
:1022600002780A7042784A7082788A70C278CA709E
:102270009DED000A08BD00002DE9F041044602F082
:1022800047FE804614B90120BDE8F08194F835007E
:10229000022808D08020606500BF002084F8340048
:1022A00000BF0120F0E7FE492068884249D0FC4980
:1022B00018312068884244D0F9493031206888427A
:1022C0003FD0F7494831206888423AD0F44960311C
:1022D0002068884235D0F24978312068884230D071
:1022E000EF499031206888422BD0ED49A831206811
:1022F000884226D0EB492068884222D0E94918312B
:10230000206888421DD0E74930312068884218D0C3
:10231000E44948312068884213D0E249603120689E
:1023200088420ED0DF4978312068884209D0DD49E3
:1023300090312068884204D0DA49A8312068884268
:1023400001D1012000E0002068B12068006820F081
:102350001E00216808602068406920F08000216824
:102360004861256806E02068006820F00E002168BA
:1023700008602568CA492068884270D0C849183169
:10238000206888426BD0C64930312068884266D0C8
:10239000C34948312068884261D0C1496031206812
:1023A00088425CD0BE4978312068884257D0BC4909
:1023B00090312068884252D0B949A83120688842BB
:1023C0004DD0B8492068884249D0B64918312068B4
:1023D000884244D0B3493031206888423FD0B14967
:1023E0004831206888423AD0AE496031206888423E
:1023F00035D0AC4978312068884230D0A949903135
:10240000206888422BD0A749A8312068884226D06E
:10241000A5492068884222D0A34914312068884207
:102420001DD0A14928312068884218D09E493C31EE
:102430002068884213D09C495031206888420ED0D1
:10244000994964312068884209D0974978312068D9
:10245000884204D094498C312068884201D10120FF
:1024600000E0002028B1206E006820F48070216E0A
:1024700008608B492068884249D089491831206812
:10248000884244D086493031206888423FD0844910
:102490004831206888423AD08149603120688842BA
:1024A00035D07F4978312068884230D07C499031DE
:1024B000206888422BD07A49A8312068884226D0EB
:1024C00078492068884222D07649183120688842AD
:1024D0001DD0744930312068884218D07149483184
:1024E0002068884213D06F496031206888420ED03E
:1024F0006C4978312068884209D06A499031206857
:10250000884204D06749A8312068884206D12068F3
:10251000006820F001002168086005E0206800687C
:1025200020F001002168086011E002F0F1FCA0EB4E
:10253000080005280BD920206065032084F83500A9
:1025400000BF002084F8340000BF01209CE628680A
:1025500000F001000028E8D151492068884249D0A4
:102560004F4918312068884244D04D4930312068A5
:1025700088423FD04A494831206888423AD0484989
:1025800060312068884235D04549783120688842DA
:1025900030D043499031206888422BD04049A8313F
:1025A0002068884226D03F492068884222D03D4991
:1025B0001831206888421DD03A493031206888425D
:1025C00018D0384948312068884213D035496031E5
:1025D000206888420ED0334978312068884209D07B
:1025E000304990312068884204D02E49A8312068B3
:1025F000884201D1012000E0002040B1A66D94F88E
:102600005C0000F01F013F208840B06007E0A76D2C
:1026100094F85C0000F01F01012088407860204998
:102620002068884276D01E4918312068884271D0CF
:102630001B493031206888426CD0194948312068E4
:10264000884267D0164960312068884262D01449B8
:102650007831206888425DD01149903120688842E5
:1026600058D00F49A8312068884253D00D492068BE
:1026700088424FD00B491831206888424AD0094916
:1026800030312068884245D0064948312068884268
:1026900040D004496031206888423BD0014905E0C0
:1026A000100002401004024008540258783120689B
:1026B00088422FD02549206888422BD023491831E1
:1026C0002068884226D022492068884222D02049AA
:1026D0001431206888421DD01D4928312068884265
:1026E00018D01B493C312068884213D0184950311A
:1026F000206888420ED0164964312068884209D08B
:10270000134978312068884204D011498C312068FF
:10271000884201D1012000E0002068B1D4E91910FD
:102720004860E06E40B1E06E006820F48070E16EB9
:102730000860D4E91C104860012084F8350000BF0F
:10274000002084F8340000BF00BF9DE5A0040240D3
:102750000854025870B504460CB9012070BD94F8B5
:102760003500022803D0802060650120F6E7DC49AF
:102770002068884249D0DA4918312068884244D01C
:10278000D7493031206888423FD0D5494831206848
:1027900088423AD0D24960312068884235D0D04949
:1027A00078312068884230D0CD4990312068884205
:1027B0002BD0CB49A8312068884226D0C94920684F
:1027C000884222D0C7491831206888421DD0C549A7
:1027D00030312068884218D0C24948312068884288
:1027E00013D0C0496031206888420ED0BD4978318D
:1027F0002068884209D0BB4990312068884204D0C3
:10280000B849A8312068884201D1012000E00020A9
:10281000F0B3042084F83500B149206888424BD0D9
:10282000AF4918312068884246D0AD493031206820
:10283000884241D0AA494831206888423CD0A84902
:1028400060312068884237D0A549783120688842B5
:1028500032D0A3499031206888422DD0A049A831B8
:102860002068884228D09F492068884224D09D490A
:102870001831206888421FD09A4930312068884238
:102880001AD0984948312068884215D0954900E00F
:1028900020E06031206888420ED09249783120686B
:1028A000884209D08F4990312068884204D08D49F0
:1028B000A8312068884206D12068006820F0010015
:1028C0002168086009E12068006820F001002168A3
:1028D000086002E12068006820F00E0021680860AE
:1028E0007F492068884249D07D4918312068884254
:1028F00044D07B493031206888423FD07849483104
:10290000206888423AD0764960312068884235D0C4
:10291000734978312068884230D0714990312068FD
:1029200088422BD06E49A8312068884226D06D4954
:102930002068884222D06B491831206888421DD017
:10294000684930312068884218D06649483120688B
:10295000884213D063496031206888420ED06149B3
:1029600078312068884209D05E49903120688842D9
:1029700004D05C49A8312068884206D120680068EC
:1029800020F001002168086005E02068006820F060
:1029900001002168086052492068884270D050497F
:1029A0001831206888426BD04D4930312068884208
:1029B00066D04B4948312068884261D0484960312F
:1029C000206888425CD0464978312068884257D0D8
:1029D000434990312068884252D04149A83120684B
:1029E00088424DD03F492068884249D03D4918313E
:1029F0002068884244D03B493031206888423FD02B
:102A000038494831206888423AD0364960312068D8
:102A1000884235D0334978312068884230D03149F6
:102A20009031206888422BD02E49A83120688842F6
:102A300026D02D492068884222D02B4914312068A5
:102A400088421DD0284928312068884218D026495C
:102A50003C312068884213D0234950312068884295
:102A60000ED0214964312068884209D01E4978314E
:102A70002068884204D01C498C312068884201D1EA
:102A8000012000E00020D8B1206E006820F48070A2
:102A9000216E0860A56D94F85C0000F01F01012014
:102AA00088406860D4E919104860E06E40B1E06E7B
:102AB000006820F48070E16E0860D4E91C10486062
:102AC000012084F8350000BF002084F8340000BFE6
:102AD000206D10B12046216D884700203EE60000A1
:102AE0001000024010040240085402580146486D8C
:102AF000704700002DE9F84F044600200090FE4882
:102B000000684FF41651B0FBF1FAA66DD4F8588066
:102B10003768D8F80090F9492068884249D0F749C9
:102B200018312068884244D0F44930312068884206
:102B30003FD0F2494831206888423AD0EF496031AD
:102B40002068884235D0ED4978312068884230D0FD
:102B5000EA499031206888422BD0E849A8312068A2
:102B6000884226D0E6492068884222D0E4491831BC
:102B7000206888421DD0E24930312068884218D050
:102B8000DF4948312068884213D0DD496031206830
:102B900088420ED0DA4978312068884209D0D84975
:102BA00090312068884204D0D549A83120688842F5
:102BB00001D1012000E0002000287DD094F85C00C5
:102BC00000F01F01082088403840002868D0CB4919
:102BD0002068884249D0C94918312068884244D0C9
:102BE000C6493031206888423FD0C4494831206806
:102BF00088423AD0C14960312068884235D0BF4907
:102C000078312068884230D0BC49903120688842B1
:102C10002BD0BA49A8312068884226D0B84920680C
:102C2000884222D0B6491831206888421DD0B44964
:102C300030312068884218D0B14948312068884234
:102C400013D0AF496031206888420ED0AC4978314A
:102C50002068884209D0AA4990312068884204D06F
:102C6000A749A8312068884204D12068006800F094
:102C7000040003E02068006800F0080080B12068CC
:102C8000006820F004002168086094F85C0000F0FF
:102C90001F0108208840B060606D40F00100606551
:102CA00094F85C0000F01F01012088403840E8B330
:102CB00092492068884200E0B7E24BD08F49183132
:102CC0002068884246D08D4930312068884241D002
:102CD0008A494831206888423CD088496031206860
:102CE000884237D0854978312068884232D083497C
:102CF0009031206888422DD08049A83120688842D0
:102D000028D07F492068884224D07D491831206826
:102D100088421FD07A493031206888421AD07849D9
:102D200048312068884215D0754900E026E06031BE
:102D3000206888420ED0724978312068884209D0D4
:102D40006F4990312068884204D06D49A8312068CD
:102D5000884204D12068406900F0800002E02068C9
:102D60000068002050B194F85C0000F01F010120C1
:102D70008840B060606D40F00200606594F85C00CF
:102D800000F01F01042088403840E8B35B49206808
:102D900088424BD0594918312068884246D057495B
:102DA00030312068884241D05449483120688842F7
:102DB0003CD0524960312068884237D04F49783141
:102DC0002068884232D04D499031206888422DD009
:102DD0004A49A8312068884228D049492068884259
:102DE00024D047491831206888421FD044493031E7
:102DF000206888421AD0424948312068884215D05C
:102E00003F496031206800E024E088420ED03C4910
:102E100078312068884209D0394990312068884249
:102E200004D03749A8312068884204D1206800685E
:102E300000F0020002E020680068002050B194F821
:102E40005C0000F01F0104208840B060606D40F01D
:102E50000400606594F85C0000F01F0110208840B9
:102E60003840E8B325492068884251D023491831B9
:102E7000206888424CD0214930312068884247D0B0
:102E80001E4948312068884242D01C496031206880
:102E900088423DD0194978312068884238D0174996
:102EA00090312068884233D01449A8312068884284
:102EB0002ED01349206888422AD011491831206841
:102EC000884225D00E4930312068884220D00C49F4
:102ED0004831206888421BD009496031206800E0F1
:102EE0004DE0884214D006497831206888420FD0DE
:102EF00003499031206805E048000024100002409A
:102F000010040240884203D0FE492068884204D160
:102F10002068006800F0080003E02068006800F006
:102F2000040060B394F85C0000F01F01102088409A
:102F3000B0602068006800F4802080B120680068DC
:102F400000F4002028B9206CC8B12046216C8847C5
:102F500015E0A06C98B12046A16C88470FE020686E
:102F6000006800F4807028B92068006820F008002C
:102F700021680860206C10B12046216C884794F8C5
:102F80005C0000F01F0120208840384000287DD0E0
:102F9000DD492068884249D0DB49183120688842E1
:102FA00044D0D9493031206888423FD0D649483191
:102FB000206888423AD0D44960312068884235D0B0
:102FC000D14978312068884230D0CF49903120688B
:102FD00088422BD0CC49A8312068884226D0C949E4
:102FE000A8392068884221D0C64990392068884293
:102FF0001CD0C44978392068884217D0C14960394B
:103000002068884212D0BF494839206888420DD0D4
:10301000BC4930392068884208D0BA49183920683C
:10302000884203D0B7492068884204D120680068EC
:1030300000F0100003E02068006800F0020028B3F0
:1030400094F85C0000F01F0120208840B06094F8E4
:10305000350004282DD12068006820F01600216872
:1030600008602068406920F0800021684861206C79
:1030700008B9A06C28B12068006820F00800216819
:10308000086094F85C0000F01F0100E03FE03F2082
:103090008840B060012084F8350000BF002084F82B
:1030A000340000BF206D10B12046216D8847BDE877
:1030B000F88F2068006800F4802080B120680068E4
:1030C00000F4002028B9606C08B32046616C884782
:1030D0001DE0E06BD8B12046E16B884717E020681F
:1030E000006800F4807068B92068006820F0100063
:1030F00021680860012084F8350000BF002084F8B2
:10310000340000BFE06B10B12046E16B8847606D72
:1031100000287AD0606D00F00100E8B3042084F844
:1031200035007949206888424BD0774918312068AA
:10313000884246D0744930312068884241D0724973
:103140004831206888423CD06F496031206888420D
:1031500037D06D4978312068884232D06A49903141
:10316000206888422DD06849A8312068884228D03C
:103170006449A8392068884223D062499039206880
:1031800088421ED05F4978392068884219D05D494D
:1031900060392068884200E040E012D0594948393F
:1031A000206888420DD0574930392068884208D0BD
:1031B000544918392068884203D05249206888420F
:1031C00006D12068006820F001002168086005E051
:1031D0002068006820F001002168086000BF0098A6
:1031E000401C0090504500D905E02068006800F0C0
:1031F00001000028F3D100BF2068006800F0010042
:1032000020B1032084F8350003E00DE0012084F8AC
:10321000350000BF002084F8340000BFE06C0028B7
:1032200002D02046E16C8847D9E1384920688842BD
:1032300022D036491431206888421DD033492831C4
:103240002068884218D031493C312068884213D028
:103250002E495031206888420ED02C4964312068B4
:10326000884209D0294978312068884204D027490A
:103270008C312068884201D1012000E00020002824
:10328000D2D02068056894F85C0000F01F0104208B
:10329000884000EA0900D8B305F00400C0B394F8F0
:1032A0005C0000F01F0104208840C8F8040005F409
:1032B000004080B105F4803030B9A06C0028B3D054
:1032C0002046A16C88478AE1206C0028ACD02046BB
:1032D000216C884783E105F02000E8BB0A4920689B
:1032E000884253D008491831206888424ED0064998
:1032F00030312068884249D00349483120688842EB
:1033000044D006E0B80402401000024008540258BD
:103310004FE0B44960312068884237D0B1497831F4
:103320002068884232D0AF499031206888422DD041
:10333000AC49A8312068884228D0AB49206888422F
:1033400024D0A9491831206888421FD0A6493031BD
:10335000206888421AD000E025E0A349483120685F
:10336000884213D0A0496031206888420ED09E491F
:1033700078312068884209D09B4990312068884282
:1033800004D09949A8312068884206D12068006895
:1033900020F008002168086005E02068006820F03F
:1033A000040021680860206C10B32046216C884717
:1033B00015E194F85C0000F01F010220884000EA4B
:1033C0000900E8B305F00200D0B394F85C0000F007
:1033D0001F0102208840C8F8040005F4004070B1C5
:1033E00005F4803028B9606C10B12046616C8847C4
:1033F000F5E0E06BF0B32046E16B8847EFE005F0C5
:103400002000C0BB7749206888424ED075491831EA
:103410002068884249D0734930312068884244D0BE
:1034200070494831206888423FD06E496031206839
:1034300088423AD06B4978312068884235D000E024
:103440004EE068499031206888422ED06549A83105
:103450002068884229D064492068884225D0624982
:1034600018312068884220D05F4930312068884276
:103470001BD001E06EE02DE05B49483120688842B6
:1034800013D059496031206888420ED056497831AE
:103490002068884209D0544990312068884204D07D
:1034A0005149A8312068884206D12068006820F080
:1034B00014002168086005E02068006820F00A0018
:1034C00021680860012084F8350000BF002084F8DE
:1034D000340000BFE06BE8B32046E16B88477EE034
:1034E00094F85C0000F01F010820884000EA090001
:1034F00080B305F0080068B33A49206888424BD091
:10350000384918312068884246D036493031206821
:10351000884241D033494831206888423CD0314903
:1035200060312068884237D02E497831206888423F
:1035300032D02C499031206888422DD02949A831B9
:103540002068884228D028492068884224D026490B
:10355000183100E043E0206888421DD02249303114
:103560002068884218D0204948312068884213D00A
:103570001D496031206888420ED01B49783120688F
:10358000884209D0184990312068884204D01649F1
:10359000A8312068884206D12068006820F01C000D
:1035A0002168086005E02068006820F00E002168AE
:1035B000086094F85C0000F01F0101208840C8F802
:1035C00004000120606584F8350000BF002084F805
:1035D000340000BFE06C10B12046E16C884700BFAA
:1035E00065E5000010000240100402402DE9F041A2
:1035F000044601F08DFC804614B90120BDE8F0813D
:10360000FE492068884249D0FC4918312068884228
:1036100044D0FA493031206888423FD0F7494831D8
:10362000206888423AD0F54960312068884235D018
:10363000F24978312068884230D0F04990312068D2
:1036400088422BD0ED49A8312068884226D0EC4929
:103650002068884222D0EA491831206888421DD06B
:10366000E74930312068884218D0E5494831206860
:10367000884213D0E2496031206888420ED0E04988
:1036800078312068884209D0DD499031206888422D
:1036900004D0DB49A8312068884201D1012000E034
:1036A0000020002873D0606A00B100BF022084F8B7
:1036B000350000BF002084F8340000BFCF492068E7
:1036C000884249D0CD4918312068884244D0CB493E
:1036D0003031206888423FD0C8494831206888424C
:1036E0003AD0C64960312068884235D0C349783124
:1036F0002068884230D0C1499031206888422BD060
:10370000BE49A8312068884226D0BD492068884239
:1037100022D0BB491831206888421DD0B8493031C9
:103720002068884218D0B64948312068884213D0B2
:10373000B3496031206888420ED0B14978312068A1
:10374000884209D0AE4990312068884204D0AC4903
:10375000A8312068884206D12068006820F0010066
:103760002168086005E02068006820F001002168F9
:1037700008600DE001F0CCFBA0EB0800052807D99C
:1037800020206065032084F83500012036E769E0D9
:103790002068006800F001000028EBD1206805686F
:1037A00098480540D4E9020108432169084361694A
:1037B0000843A1690843E1690843216A08430543B6
:1037C000606A042803D1D4E90B010843054360680B
:1037D000292802D360682E2817D960683F2802D3B1
:1037E0006068422811D96068472802D36068482879
:1037F0000BD960684F2802D36068522805D96068E9
:10380000742804D36068772801D8012000E00020E4
:1038100008B145F48015206805602068456925F0E9
:103820000705606A0543606A04280DD1A06A054354
:10383000E06A48B12046FDF7C7FC28B1402060652A
:10384000012084F83500D9E6206845612046FDF75F
:1038500097FB064694F85C0000F01F013F2088406B
:10386000B0609EE068492068884222D066491431E1
:10387000206888421DD0644928312068884218D0C9
:1038800061493C312068884213D05F49503120683B
:1038900088420ED05C4964312068884209D05A4978
:1038A00078312068884204D057498C31206888429A
:1038B00001D1012000E00020E0B353492068884294
:1038C00022D051491431206888421DD04E492831F8
:1038D0002068884218D04C493C312068884213D077
:1038E00049495031206888420ED0474964312068E8
:1038F000884209D0444978312068884204D042493E
:103900008C312068884201D1012000E0002000B104
:1039100000BF022084F8350000BF002084F8340086
:1039200000BF2068056839480540A068402802D1DA
:10393000102106E02EE0A068802801D1C10100E03E
:103940000021E06841EAD001206941EAD0016069C4
:1039500041EAD001A06941EAD001E06941EAD00121
:10396000206A41EA10100543206805602649206856
:10397000401A1421B0FBF1F08000E0652046FDF70D
:10398000FFFA074694F85C0000F01F010120884010
:10399000786006E040206065032084F8350001204F
:1039A0002CE61649206888427AD0144918312068DC
:1039B000884275D0114930312068884270D00F4953
:1039C0004831206888426BD00C49603120688842B9
:1039D00066D00A4978312068884261D00749903121
:1039E000206888425CD00549A8312068884257D0B9
:1039F00003492068884253D0014909E01000024081
:103A0000100402403F8010FE085402580F00FEFFD1
:103A100018312068884243D03749206888423FD017
:103A200035491831206888423AD03349303120680E
:103A3000884235D0304948312068884230D02E49FC
:103A40006031206888422BD02B4978312068884229
:103A500026D02A492068884222D02849143120687B
:103A600088421DD0254928312068884218D0234932
:103A70003C312068884213D0204950312068884268
:103A80000ED01E4964312068884209D01B49783124
:103A90002068884204D019498C312068884201D1BD
:103AA000012000E0002000B32046FDF7DFFAA06807
:103AB000802801D1002060602079216E0860D4E95F
:103AC00019104860606860B16068082809D820460D
:103AD000FDF72EFB0020E16E0860D4E91C10486061
:103AE00003E00020E0662067606700206065012039
:103AF00084F83500002081E5400402400854025853
:103B00002DE9F04104460D4616461F464FF00008C9
:103B100014B90120BDE8F08100BF94F834000128F9
:103B200001D10220F6E7012084F8340000BF94F8A8
:103B3000350001287ED1022084F835000020606520
:103B4000E4492068884249D0E24918312068884217
:103B500044D0E0493031206888423FD0DD494831C7
:103B6000206888423AD0DB4960312068884235D0ED
:103B7000D84978312068884230D0D64990312068C1
:103B800088422BD0D349A8312068884226D0D24918
:103B90002068884222D0D0491831206888421DD040
:103BA000CD4930312068884218D0CB49483120684F
:103BB000884213D0C8496031206888420ED0C64977
:103BC00078312068884209D0C34990312068884202
:103BD00004D0C149A8312068884206D12068006815
:103BE00020F001002168086005E02068006820F0EE
:103BF0000100216808603B46324629462046FDF711
:103C00003BFBB449206888424BD0B2491831206848
:103C1000884246D0AF4930312068884241D0AD4912
:103C20004831206888423CD0AA49603120688842E7
:103C300037D000E042E1A74978312068884230D08F
:103C4000A4499031206888422BD0A249A83120682D
:103C5000884226D0A0492068884222D09E49183147
:103C6000206888421DD09C4930312068884218D095
:103C7000994948312068884213D0974960312068BB
:103C800088420ED0944978312068884209D0924900
:103C900090312068884204D08F49A831206888423A
:103CA00001D1012000E0002080B12068006820F0F0
:103CB0001E0040F0160021680860206CB0B120683A
:103CC000006840F00800216808600FE02068006884
:103CD00020F00E0040F00A0021680860206C28B136
:103CE0002068006840F00400216808607949206875
:103CF000884270D077491831206888426BD0754966
:103D000030312068884266D0724948312068884244
:103D100061D070496031206888425CD06D4978314B
:103D20002068884257D06B4990312068884252D031
:103D30006849A831206888424DD067492068884288
:103D400049D0654918312068884244D062493031F1
:103D5000206888423FD060494831206888423AD084
:103D60005D4960312068884235D05B4978312068F0
:103D7000884230D058499031206888422BD056492B
:103D8000A8312068884226D054492068884222D031
:103D900052491431206888421DD05049283120688A
:103DA000884218D04D493C312068884213D04B4995
:103DB0005031206888420ED04849643120688842DA
:103DC00009D0464978312068884204D043498C3173
:103DD0002068884201D1012000E0002090B1206ECF
:103DE000006800F4803028B1206E006840F48070D4
:103DF000216E0860E06E28B1E06E006840F48070CB
:103E0000E16E086033492068884249D03149183151
:103E10002068884244D02F493031206888423FD002
:103E20002C494831206888423AD02A4960312068BC
:103E3000884235D0274978312068884230D02549DA
:103E40009031206888422BD02249A83120688842CE
:103E500026D021492068884222D01F491831206885
:103E600088421DD01C4930312068884218D01A4938
:103E700048312068884213D0174960312068884251
:103E80000ED0154978312068884209D01249903106
:103E90002068884204D01049A8312068884206D1A1
:103EA0002068006840F001002168086010E0206888
:103EB000006840F001002168086009E04FF40060EC
:103EC000606500BF002084F8340000BF4FF0010897
:103ED00040461FE6100002401004024008540258F9
:103EE00070B5044601F014F806462546681C10B16A
:103EF00004480078054400BF01F00AF8801BA8427E
:103F0000FAD370BD4400002430B5034693F89840BE
:103F1000012C01D0022C3ED11868806D084030B9C8
:103F20001868C06D40F001001D68E8650EE0186873
:103F3000806D0840884206D11868C06D40F00200CC
:103F40001D68E86502E003201D68E86501F4007063
:103F500030B11868D0F8E00010431D68C5F8E000E3
:103F600001F4806030B11868D0F8E40010431D6897
:103F7000C5F8E40000BF1868406D0B4D0D402843A4
:103F80001D6868650948006840EA9170074D28601F
:103F900000BF002030BDD3F89C0040F00200C3F801
:103FA0009C000120F6E70000FFFFCF3F14A800406F
:103FB0002DE9F04104460E461746706800B900E04E
:103FC00000BF94F89800022832D12068D0F8C000D1
:103FD00000F07C5040B9D4F89C0040F02000C4F8B8
:103FE0009C000120BDE8F0812068D0F8C40000F4F6
:103FF000001038B1D4F89C0040F40070C4F89C0064
:104000000120EFE72068D0F8C400C0F304452B4638
:104010003A4631462046FDF7E9FD0120A8402168D7
:10402000C1F8D0000120A840C4F894000020D9E7CE
:10403000D4F89C0040F00800C4F89C000120D1E7AF
:104040007047F0B5024692F89860012E01D0022E1A
:1040500043D1C868072800D100BF086818BBC868EA
:10406000072800D000BFC86807280BD1088A4FF086
:10407000605747EA0040CF6940EA07208F6940EA6D
:1040800007040AE0087A80070F7B40EAC7600F8ABE
:1040900040EA07404F6940EA0704D76E486807EBDB
:1040A00080031C6017E0C868072800D000BF0F7BA2
:1040B000086940EA4774C868072801D18D6903E0A0
:1040C0000F7A486940EA8775176F486807EBC003A5
:1040D0001C601B1D1D600020F0BDD2F89C0040F04C
:1040E0000200C2F89C000120F6E77047704700000C
:1040F0002DE9F04304460D469C46002394F8988031
:10410000B8F1020F74D1402D38D12068D0F8A0004A
:1041100000F4FE0040B9D4F89C0040F02000C4F840
:104120009C000120BDE8F0832068D0F8A40000F0D6
:104130007F0038B9D4F89C0040F48070C4F89C002B
:104140000120EFE72068D0F8A400C0F3006040B180
:104150002068D0F8A0004FF00109B9EBD07F00D162
:1041600001232068D0F8A400C0F305200344606C4C
:104170005843D4F8749009EB80014BE0412D38D1BD
:104180002068D0F8B00000F4FE0038B9D4F89C00E4
:1041900040F02000C4F89C000120C3E72068D0F85C
:1041A000B40000F07F0038B9D4F89C0040F480706F
:1041B000C4F89C000120B5E72068D0F8B400C0F333
:1041C000006040B12068D0F8B0004FF00109B9EBB1
:1041D000D07F00D101232068D0F8B400C0F30520BF
:1041E0000344E06C5843D4F8789009EB800111E067
:1041F0006DE0206DA84207D8D4F89C0040F0200064
:10420000C4F89C0001208DE7606D6843D4F87C9071
:1042100009EB8001086800F080405060506820B9C8
:104220000868C0F38A40106003E0086820F060402E
:104230001060086800F000509060086800F00040CE
:104240001061091D088880B2D0610868C0F303407E
:10425000D060086800F480105061086800F4001015
:1042600090610868C0F3066010620868C00F506271
:10427000091D0F46002603E0B85D0CF80600761C09
:10428000DFF85C90D06819F80000B042F4D8402DF7
:1042900003D12068C0F8A83017E0412D03D1206871
:1042A000C0F8B83011E0202D06D20120A840D4F883
:1042B0000090C9F8980008E005F01F09012000FAF5
:1042C00009F0D4F80090C9F89C0000202AE7D4F83F
:1042D0009C0040F00800C4F89C00012022E7000088
:1042E0007CED0008704700002DE9F04F8DB00446CA
:1042F000EF4800688707EE48001D006807EA8077EE
:104300002068006D00F470482068406D00EA0808DD
:104310002068006D00F00F092068406D00EA09096F
:104320002068006D00F0F00A2068406D00EA0A0A7B
:104330002068006D00F0715B2068406D00EA0B0B97
:104340002068006D00F060700C902068406D0C9942
:1043500008400C902068456D2068066DC5F300206C
:1043600070B1C6F3002058B100BF4FF480702168CF
:1043700008650020CE49086000BF2046FFF7B2FF65
:10438000C5F38020C8B1C6F38020B0B12068D0F852
:10439000DC000A902068D0F8E4000A9908400A90EE
:1043A00000BF4FF48060216808650020C0490860A4
:1043B00000BF20460A9900F07EFC67B100BFBD48EF
:1043C000384021680865B80FB949086000BF394610
:1043D0002046FFF735FEB8F1000F0ED000BFB548FC
:1043E00008EA0000216808654FEA9870B049086043
:1043F00000BF4146204600F060FCB9F1000F0ED02E
:1044000000BFAC4809EA0000216808654FEA9970CE
:10441000A749086000BF4946204600F0DFFBBAF11B
:10442000000F0ED000BFA3480AEA0000216808650B
:104430004FEA9A709E49086000BF5146204600F03E
:1044400019FCC5F3C02070B1C6F3C02058B100BF3D
:104450004FF400602168086500209549086000BF9E
:10446000204600F02BFCC5F34020C8B1C6F3402025
:10447000B0B12068D0F8D8000B902068D0F8E000E8
:104480000B9908400B9000BF4FF40070216808653D
:1044900000208749086000BF20460B9900F00CFC03
:1044A000C5F3C04070B1C6F3C04058B100BF4FF46F
:1044B00000202168086500207D49086000BF204673
:1044C00000F08AFBC5F3004070B1C6F3004058B15C
:1044D00000BF4FF4803021680865002074490860EF
:1044E00000BF204600F0E6FBC5F3804070B1C6F384
:1044F000804058B100BF4FF480202168086500203B
:104500006B49086000BF204600F0D3FBC5F3404074
:1045100088B1C6F3404070B100BF4FF4003021684D
:10452000086500206249086000BFD4F89C0040F094
:104530008000C4F89C000C9870B100BF5D490C98D5
:104540000840216808650C98800F5949086000BF31
:1045500020460C99FFF7CAFDBBF1000F10D000BF39
:1045600054480BEA0000216808654FEA9B705049E7
:10457000086000BFD4F89C0040EA0B00C4F89C001F
:104580004D49206888427DD16068806800F0030052
:10459000002877D06068006A00F00F00099060681A
:1045A000406A0999084009906068006A00F030008C
:1045B00008906068406A0899084008906068006A3E
:1045C00000F4C07007906068406A0799084007903F
:1045D0006068006A00F4FC4006906068406A0699D2
:1045E000084006906068006A00F4F020059060685A
:1045F000406A0599084005906068406A02906068CA
:10460000006A0190099830B10998616808622046F3
:10461000099900F04BFB089830B10898616808626E
:104620002046089900F044FB0298C0F38010A0B126
:104630000198C0F3801080B16068C06B000C0490DA
:104640006068C06B00F03F00039040206168086222
:104650002046DDE9032100F02AFB079830B10798D6
:10466000616808622046079900F01FFB069840B178
:10467000069861680862D4F89C0006990843C4F85B
:104680009C0000E00AE0059840B105986168086266
:10469000D4F89C0005990843C4F89C00D4F89C0009
:1046A00010B12046FFF721FD0DB0BDE8F08F0000EE
:1046B00010A80040FFFFCF3F00A0004070B594B0AD
:1046C00004464C22B34901A8FBF79CFF14B9012012
:1046D00014B070BDB0492068884203D1206800F54D
:1046E00080706060A068B0F5407F00D100BF206C92
:1046F00000B100BFA06C00B100BF206D00B100BFD1
:10470000206E00B100BFD4E91710084400B100BF0B
:1047100094F8980028B9002084F89900204600F009
:104720003DF92068806920F010002168886100F060
:10473000EFFB05460EE000F0EBFB401B0A2809D911
:104740009834606840F001006060032004F8980924
:104750000120BDE72068806900F008000828EAD041
:104760002068806940F001002168886100F0D0FB7A
:1047700005460EE000F0CCFB401B0A2809D998340E
:10478000606840F001006060032004F8980901208F
:104790009EE72068806900F001000028EAD02068C8
:1047A000806940F0020021688861207C012806D1E0
:1047B0002068806920F040002168886105E0206859
:1047C000806940F0400021688861607C012806D142
:1047D0002068806940F480402168886105E0206895
:1047E000806920F4804021688861A07C012806D17E
:1047F0002068806920F480502168886105E0206885
:10480000806940F48050216888612068806920F4C4
:104810004070A1680843216888612068806920F0A1
:10482000A400216888612068006920F010002168D8
:104830000861E068012806D12068806940F0040022
:104840002168886120E0E068F0B1E068022815D0B6
:104850002068806940F080002168886120680069D4
:1048600040F0100021680861E06803280CD120683E
:10487000806940F020002168886105E02068806937
:1048800040F0200021688861207E401E4106E069DA
:10489000401E41EA0020216A491E0843A18A491EA0
:1048A00040EA01402168C861A068B0F5407F0FD19F
:1048B000A06A401EE16A491E40EA0121206B401EA9
:1048C00041EA0011A08C401E41EA00402168C86006
:1048D000206E38B12068D0F8C000616E08432168AE
:1048E000C1F8C000D4E91710084460B12068D0F8BE
:1048F000C80020F0070001AAA16E52F82110084359
:104900002168C1F8C800206C60B12068D0F8BC00F4
:1049100020F0070001AA616C52F8211008432168B9
:10492000C1F8BC00A06C68B12068D0F8BC0020F0D1
:10493000700101AAE06C52F8200041EA00102168E1
:10494000C1F8BC00206D68B12068D0F8BC0020F42C
:10495000E06101AA606D52F8200041EA0020216860
:10496000C1F8BC000C492068884205D160688068A5
:1049700020F0030061688860002044F8940FA06074
:1049800001202071943C2046FDF704F8064630468D
:104990009EE600008CED000800A0004010B5B6B007
:1049A0000446142130A8FBF789FEB82102A8FBF7C2
:1049B00085FE82492068884251D14FF40041002091
:1049C000CDE9021048031D9002A800F01DFE08B1B9
:1049D000FCF7ACFF7A480068401C7949086008463B
:1049E000006801280DD100BF7648006840F480704F
:1049F000744908600846006800F48070019000BFA8
:104A000000BF00BF6F480C38006840F008006D49D7
:104A10000C3908600846006800F00800019000BFEB
:104A200000BF03203090022031900020329033905C
:104A30000920349030A9644800F06CF90022052167
:104A4000132000F01DFB132000F006FB00220521BF
:104A5000152000F015FB152000F0FEFAACE05B49D4
:104A60002068884252D14FF400410020CDE9021065
:104A700048031D9002A800F0C7FD08B1FCF756FFDF
:104A80004F480068401C4E490860084600680128ED
:104A90000DD100BF4B48006840F480704949086060
:104AA0000846006800F48070019000BF00BF00BF9E
:104AB00044480C38006840F0020042490C39086054
:104AC0000846006800F00200019000BF00BF4FF4EC
:104AD00040503090022031900020329033900920D5
:104AE000349030A93A4800F015F90022052114202D
:104AF00000F0C6FA142000F0AFFA002205211620BB
:104B000000F0BEFA162000F0A7FA55E031492068FF
:104B1000884251D14FF400410020CDE902104803F2
:104B20001D9002A800F070FD08B1FCF7FFFE2448BC
:104B30000068401C224908600846006801280DD121
:104B400000BF2048006840F480701E490860084695
:104B5000006800F48070019000BF00BF00BF1948DA
:104B60000C38006840F0080016490C390860084607
:104B7000006800F00800019000BF00BF4FF44050F3
:104B800030900220319000203290339005203490F4
:104B900030A90D4800F0BEF8002205219F2000F04A
:104BA0006FFA9F2000F058FA00220521A02000F0A3
:104BB00067FAA02000F050FA36B010BD00A0004007
:104BC00038000024EC440258000C025800A40040B5
:104BD0000004025800D400407047000070B58EB049
:104BE00004460E4600BF5021EFF3118081F3118877
:104BF000BFF34F8FBFF36F8F00BF054600200090BB
:104C00000190029003906B4604AA40212046FFF7D2
:104C10006FFA1449206888420DD19DF800000A28D7
:104C200009D10498BB2806D10798062803D10E495C
:104C3000684606F0ADFA0D49206888420CD1049808
:104C400000F47060B0F5007F06D1059820B9084ADD
:104C5000694604A804F052FB00BF85F3118800BF29
:104C60000EB070BD00A00040641B002400A40040F2
:104C7000F42000247047014691F8980001280CD1D7
:104C8000022081F898000868806920F001000A6815
:104C900090610020C1F89C007047D1F89C0040F062
:104CA0000400C1F89C000120F6E770477047704788
:104CB00070477047704770477047704770470000F3
:104CC00002280FD10849097861B90121064A1170FB
:104CD0009FED060A064981ED020A9FED040A054987
:104CE00081ED040A7047000010000024000000005D
:104CF000402000247420002410B5044604480068B5
:104D0000204020B1024804602046FFF7D9FF10BDC3
:104D100088000058F8B502460B4600216D4DD2E0E0
:104D200001278F401E6806EA0704002C72D01E7906
:104D300006F00306012E04D01E7906F00306022EAB
:104D400013D190684F000326BE40B0434F00DE6889
:104D5000BE4030439060506801268E40B0431E79BB
:104D6000C6F300168E40304350601E7906F00306ED
:104D7000032E09D0D0684F000326BE40B0434F0039
:104D80009E68BE403043D0601E7906F00306022EB6
:104D900013D1CF0802F1200656F827004E07F70E70
:104DA0000F26BE40B0434F07FF0E1E69BE40304382
:104DB000CF0802F1200646F8270010684F000326AE
:104DC000BE40B0431E7906F003064F00BE4030439C
:104DD00010605E6806F44036002E73D000BF3E4E71
:104DE000366846F002063C4F3E603E46366806F0A6
:104DF0000206009600BF00BF384E8F0856F8270005
:104E00008E07370F0F26BE40B043354EB24202D157
:104E1000002629E056E0334EB24201D1012623E0BC
:104E2000314EB24201D102261EE0304EB24201D1D3
:104E3000032619E02E4EB24201D1042614E02D4E75
:104E4000B24201D105260FE02B4EB24201D1062617
:104E50000AE02A4EB24201D1072605E0284EB242AE
:104E600001D1092600E00A268F073F0FBE403043DC
:104E70001A4E8F0846F827004FF0B0463068A0431E
:104E80005E6806F4801606B120434FF0B0463060ED
:104E90007068A0435E6806F4001606B120434FF028
:104EA000B04670606868A0435E6806F4003606B1DC
:104EB000204368602868A0435E6806F4803606B127
:104EC00020432860491C1E68CE40002E7FF428AF86
:104ED000F8BD000080000058F4440258080400584F
:104EE000000002580004025800080258000C025842
:104EF000001002580014025800180258001C0258F2
:104F0000002402580AB1816101E00B0483617047FB
:104F100001480068704700003C0000240348006816
:104F20000349097808440149086070473C0000249F
:104F30004400002410B5032000F0E0F801F0D8FB95
:104F400010490968C1F303210F4A515C01F01F01A8
:104F500020FA01F40B48006800F00F001146085CCD
:104F600000F01F0024FA00F00849086008480460B7
:104F70000F2000F00FF808B1012010BD00F054F828
:104F80000020FAE71844025800EE00084C00002404
:104F90004800002470B58AB00446102C0AD20022C2
:104FA0002146192000F06CF8192000F055F8194836
:104FB000046002E001200AB070BD00BF164800681E
:104FC00040F00100144908600846006800F0010044
:104FD000009000BF00BF01A902A801F009FB01F089
:104FE00075FB45000D48B5FBF0F0461E0C480D4919
:104FF000086040F2E7310B48C16046600021016162
:10500000816002F0AFF818B9064802F03DF9D2E726
:105010000120D0E740000024F044025840420F0035
:1050200000000140B80D002408B500BF0948006821
:1050300040F00200074908600846006800F00200DE
:10504000009000BF00BF00220F21901E00F018F852
:1050500008BD0000F44402580146084600280DDB54
:1050600000BF00BF00F01F0301229A4043099B00CC
:1050700003F1E023C3F8002100BF00BF00BF704769
:105080002DE9F05F80460D46164606F0E3F8074628
:1050900039462A46334601F00700C0F1070ABAF143
:1050A000040F02D94FF0040A01E0C0F1070AD1460B
:1050B00000F1040ABAF1070F02D24FF0000A01E032
:1050C000A0F1030AD4464FF0010A0AFA09FAAAF13C
:1050D000010A0AEA020A0AFA0CFA4FF0010B0BFA6B
:1050E0000CFBABF1010B0BEA030B4AEA0B04214664
:1050F000404606F0B7F8BDE8F09F000000BF00F0A2
:105100000702064B19684FF6FF031940044B0B4387
:1051100043EA0221014B196000BF70470CED00E02B
:105120000000FA0570B5044615480068C0F3800019
:1051300048B91348006800F00700A04201D00120E0
:1051400070BD0020FCE70E48006820F007002043F7
:105150000B490860FFF7DCFE054607E0FFF7D8FEC5
:10516000401BB0F57A7F01D90120E9E704480838EF
:105170000068C0F340300028F0D00020E0E70000D5
:105180000C48025810B501F069FA05490968C1F3E5
:105190000211044A515C01F01F01C84010BD00001B
:1051A0002044025800EE000870B50146844D2D6879
:1051B00005F00303824D2D68C5F30530804D2D1D8C
:1051C0002D68C5F300147E4D14352D68C5F3CC054C
:1051D00015FB04F501EE105AB8EE411AF0EE410A43
:1051E00000286FD023B1012B4ED0022B6BD16BE086
:1051F000734D283D2D68C5F340153DB3704D283DD6
:105200002D68C5F3C1066F4D25FA06F201EE102A8E
:10521000F8EE411A01EE100AB8EE411A81EE812A29
:105220009FED691AC0EE811A654D10352D68C5F3E2
:10523000080501EE105AB8EE411A31EE811AF7EE68
:10524000001A31EE211A22EE010A1CE001EE100ACA
:10525000B8EE411ADFED5D1A81EE812A9FED5A1AF0
:10526000C0EE811A564D10352D68C5F3080501EEC4
:10527000105AB8EE411A31EE811AF7EE001A31EEEB
:10528000211A22EE010A5BE001EE100AB8EE411A83
:10529000DFED4F1A81EE812A9FED4B1AC0EE811A85
:1052A000474D10352D68C5F3080501EE105AB8EECC
:1052B000411A31EE811AF7EE001A31EE211A22EE70
:1052C000010A3DE077E01DE001EE100AB8EE411A58
:1052D0009FED402AC2EE011A9FED3B1A80EE812A13
:1052E000374D10352D68C5F3080501EE105AB8EE9C
:1052F000411A32EE011AB7EE002A31EE021A21EEFF
:10530000810A1DE001EE100AB8EE411ADFED301AF5
:1053100081EE812A9FED2C1AC0EE811A284D10359E
:105320002D68C5F3080501EE105AB8EE411A31EEAA
:10533000811AF7EE001A31EE211A22EE010A00BF9F
:1053400000BF1F4D10352D68C5F3462501EE105ADC
:10535000B8EE411AF7EE001A31EE211AC0EE011A2A
:10536000BCEEE11A81ED001A154D10352D68C5F31C
:10537000064501EE105AB8EE411AF7EE001A31EE6A
:10538000211AC0EE011ABCEEE11A81ED011A0C4D92
:1053900010352D68C5F3066501EE105AB8EE411AB6
:1053A000F7EE001A31EE211AC0EE011ABCEEE11A36
:1053B00081ED021A03E000250D604D608D6070BD27
:1053C000284402580090D003000000460024744C8A
:1053D0000024744A0024F44A70B50146844D2D68B7
:1053E00005F00303824D2D68C5F30550804D2D1D3A
:1053F0002D68C5F300247E4D1C352D68C5F3CC0502
:1054000015FB04F501EE105AB8EE411AF0EE410A10
:1054100000286FD023B1012B4ED0022B6BD16BE053
:10542000734D283D2D68C5F340153DB3704D283DA3
:105430002D68C5F3C1066F4D25FA06F201EE102A5C
:10544000F8EE411A01EE100AB8EE411A81EE812AF7
:105450009FED691AC0EE811A654D18352D68C5F3A8
:10546000080501EE105AB8EE411A31EE811AF7EE36
:10547000001A31EE211A22EE010A1CE001EE100A98
:10548000B8EE411ADFED5D1A81EE812A9FED5A1ABE
:10549000C0EE811A564D18352D68C5F3080501EE8A
:1054A000105AB8EE411A31EE811AF7EE001A31EEB9
:1054B000211A22EE010A5BE001EE100AB8EE411A51
:1054C000DFED4F1A81EE812A9FED4B1AC0EE811A53
:1054D000474D18352D68C5F3080501EE105AB8EE92
:1054E000411A31EE811AF7EE001A31EE211A22EE3E
:1054F000010A3DE077E01DE001EE100AB8EE411A26
:105500009FED402AC2EE011A9FED3B1A80EE812AE0
:10551000374D18352D68C5F3080501EE105AB8EE61
:10552000411A32EE011AB7EE002A31EE021A21EECC
:10553000810A1DE001EE100AB8EE411ADFED301AC3
:1055400081EE812A9FED2C1AC0EE811A284D183564
:105550002D68C5F3080501EE105AB8EE411A31EE78
:10556000811AF7EE001A31EE211A22EE010A00BF6D
:1055700000BF1F4D18352D68C5F3462501EE105AA2
:10558000B8EE411AF7EE001A31EE211AC0EE011AF8
:10559000BCEEE11A81ED001A154D18352D68C5F3E2
:1055A000064501EE105AB8EE411AF7EE001A31EE38
:1055B000211AC0EE011ABCEEE11A81ED011A0C4D60
:1055C00018352D68C5F3066501EE105AB8EE411A7C
:1055D000F7EE001A31EE211AC0EE011ABCEEE11A04
:1055E00081ED021A03E000250D604D608D6070BDF5
:1055F000284402580090D003000000460024744C58
:105600000024744A0024F44A2DE9F04104460025A0
:10561000A8464FF00062D4E9001011400020134664
:1056200059404040014331D1606E48B1B0F5801F10
:105630000DD0B0F5001F11D0B0F5401F16D114E009
:10564000FE48006840F40030FC49086010E0022188
:1056500004F1080004F05CF9054609E0022104F1B8
:10566000280004F007FA054602E001E0012500BF2A
:1056700000BF55B9F1482430006820F44010616E35
:105680000843EE492431086000E0A8464FF48072D8
:10569000D4E9001011400020134659404040014316
:1056A0002ED1A06D05281BD2DFE800F0030A1118E7
:1056B0001900E248006840F40030E049086011E059
:1056C000002104F1080004F023F905460AE0002156
:1056D00004F1280004F0CEF9054603E002E001E001
:1056E000012500BF00BF55B9D4482430006820F020
:1056F0000700A16D0843D1492431086000E0A846A5
:105700004FF48062D4E90010114000201346594044
:10571000404001433DD1D4F8A400B0F5C00F24D0DF
:1057200007DC68B1B0F5001F11D0B0F5800F1FD1B4
:1057300014E0B0F5000F19D0B0F5200F18D116E025
:10574000BE48006840F40030BC49086012E0002107
:1057500004F1080004F0DCF805460BE0002104F138
:10576000280004F087F9054604E003E002E001E0C8
:10577000012500BF00BF5DB9B0482C30006820F49F
:105780006000D4F8A4100843AC492C31086000E054
:10579000A8464FF40062D4E90001104000211346EE
:1057A0005840494008433DD1D4F8A800B0F1407FAB
:1057B00024D007DC68B1B0F1807F11D0B0F1007F58
:1057C0001FD114E0B0F1806F19D0B0F1A06F18D1E3
:1057D00016E09A48006840F400309849086012E0EA
:1057E000002104F1080004F093F805460BE00021C5
:1057F00004F1280004F03EF9054604E003E002E06D
:1058000001E0012500BF00BF5DB98C482C30006865
:1058100020F0E060D4F8A810084388492C310860D3
:1058200000E0A8464FF00073D4E9001019400020B2
:1058300059404040014328D1E06CA8B1102804D061
:10584000202809D0302810D10DE07C48006840F4B1
:1058500000307A4908600AE0022104F1080004F0EF
:1058600057F8054603E002E001E0012500BF00BF54
:1058700055B972482030006820F03000E16C0843D0
:105880006E492031086000E0A8464FF48053D4E907
:1058900000101940002059404040014337D1E06DCD
:1058A000B0F5005F1AD004DC50B1B0F5805F1ED1B6
:1058B0000DE0B0F5405F18D0B0F5804F17D115E07E
:1058C0005E48006840F400305C49086011E0002147
:1058D00004F1080004F01CF805460AE0002104F178
:1058E000280004F0C7F8054603E002E001E00125C6
:1058F00000BF00BF55B951482430006820F4E04093
:10590000E16D08434D492431086000E0A8464FF49A
:105910000053D4E900101940002059404040014391
:1059200035D1206EB0F5403F1ED007DC68B1B0F530
:10593000803F0BD0B0F5003F19D10EE0B0F5802FBD
:1059400013D0B0F5A02F12D110E012E0012104F124
:10595000080003F0DDFF05460BE0012104F12800FB
:1059600004F088F8054604E003E002E001E00125C8
:1059700000BF00BF55B931482430006820F4E02052
:10598000216E08432D492431086000E0A8464FF4F9
:105990008042D4E90001104000211346584049409C
:1059A000084337D1D4F8AC00B0F1405F1ED007DC1B
:1059B00068B1B0F1805F0BD0B0F1005F19D10EE09B
:1059C000B0F1804F13D0B0F1A04F12D110E012E02F
:1059D000012104F1080003F09BFF05460BE00121C3
:1059E00004F1280004F046F8054604E003E002E074
:1059F00001E0012500BF00BF5DB910482C300068F0
:105A000020F0E040D4F8AC1008430C492C31086079
:105A100000E0A8464FF40043D4E9000118400021FB
:105A20005840494008432AD1E06EB8B1B0F1805FD8
:105A300006D0B0F1005F12D109E000002C440258FA
:105A4000F948006840F40030F749086009E0012196
:105A500004F1080003F05CFF054602E001E00125C7
:105A600000BF00BF55B9F0482430006820F0405016
:105A7000E16E0843EC492431086000E0A8464FF08D
:105A80008073D4E900101940002059404040014380
:105A900028D1A06CA8B1012804D0022809D003287D
:105AA00010D10DE0E048006840F40030DE490860A5
:105AB0000AE0022104F1080003F02AFF054603E092
:105AC00002E001E0012500BF00BF55B9D6482030F3
:105AD000006820F00300A16C0843D349203108601E
